:020000040000FA
:020000000528D1
:080008004B2885018601A001CF
:10001000A101A201A301A401A501A601A701A801B4
:10002000A901AA01AB01AC01AD01AE01AF01B00164
:10003000B101B201B301B401B501831603130F1767
:100040008F1607309C008316BD3085000130860076
:1000500083161B1483169F171F139F121F128312E0
:100060009F171F179F121F129F118316031301174B
:100070000B168B17831203131F144A201F151F1909
:100080003F2883161E088312B500B400CF20F52048
:100090004A203D280800AB00030E8301A9000A088E
:1000A000AA008A01A401A5010530A6009D20BC205C
:1000B000861C5B286D28061D5E287A2887209020E4
:1000C000BC20A2200311A60B5828A7202A088A00CA
:1000D000290E8300AB0E2B0E0900A40A0311153064
:1000E0002402031D742899200530A6008720861C51
:1000F00060287728A50A031115302502031D8128E1
:100100009B200530A6009020861C602884282408A7
:10011000A700A70DA70DA70DA70D270885000800AC
:100120002508A800A80DA80DA80DA80D2808860070
:100130000800A4010800A501080050308600E03046
:1001400085000800F0308600F030850008002508A2
:10015000A800A80DA80D2808A507250DA407AC0028
:1001600008000330A2008930A100A00BB528A10B24
:10017000B528A20BB52808000430AF00FA30AE0055
:10018000A630AD00AF0BC528CB28AE0BC828C228BF
:10019000CC20CC20C5280800AD0BCC280800B0012D
:1001A000B1010830B3000310B40DB10DB30BD92861
:1001B000E8280F303105B200053032020318E9207B
:1001C000F0303105B200503032020318EF20D3284E
:1001D00008000330B107031C0800B00D08003030E0
:1001E000B107031C0800B00D080083123108860017
:0C01F000311CFC280517FD280513080031
:00000001FF
