:020000040000FA
:020000000528D1
:080008000029182231223622E2
:100010003D2283120313C1015830B3005830C3008E
:10002000851B102805123308C0007524C00B152845
:10003000C10A051651240512C30B24285830C300E9
:0E0040002128B30B2428252810280512252876
:10020000AB00030E8301A9000930A400A5004D2214
:100210005722FF30BA00FF30BB000830BC00061E7A
:10022000132900220929851C17290C220929BA0B38
:100230000F29BB0B0F29BC0B1D298312031306309A
:10024000BA004D2257223024FF3086000517302493
:10025000BA0B2129290E8300AB0E2B0E8B1009003F
:1004000083120313A40B082A052A4D220930A400E5
:100410004D22051A092A080083120313A50B142A7A
:10042000112A57220930A5005722051A152A08005B
:100430008312031385018601A401A501A601A7016A
:10044000A801A901AA01AB01AC01AD01AE01AF0148
:10045000B001B101B201C401B401B501B701B801E5
:100460000800831603130F178F1608008316031353
:10047000AC30850001308600080083160313011399
:100480000B168B1708008312031331088600311CEA
:100490004B2A05174C2A051308008312031324085E
:1004A0008600241C552A0517562A051308008312B6
:1004B00003132508B900B90DB90DB90DB90D3908E7
:1004C00006068600251C662A0517672A05130800FC
:1008000083160313811281110115811001148312C3
:100810000313400881000B1D0B2C0311C00A031D9C
:10082000142C2D14FF30C0000B1108008316031385
:1008300081128111011581100114831203134008E4
:1008400081000B1D212CC00303114008C2007C3025
:100850004202031D2E2C2D107C30C0000B1108000D
:100860003B243B243B243B243B243B243B243B2490
:100870003B243B24080083160313811281110115C8
:1008800081140114831203133C3081000B1D462C8C
:100890000B110800831203130630B600B60B4E2C62
:1008A00008008316031381128111011581140114AC
:1008B00083120313FB3081000B1D5C2C0B1108000D
:1008C000831203132030B600B60B642C0800831289
:1008D00003135230B600B60B6B2C080083120313BF
:1008E000C730B600B60B722C0800831203131A30FF
:0808F000B600B60B792C0800DC
:00000001FF
