:020000040000FA
:020000000528D1
:08000800482885018601A001D2
:10001000A101A201A301A401A501A601A701A801B4
:10002000A901AA01AB01AC01AD01AE01AF01B00164
:10003000B101B201B301B401B50183160F178F16D8
:1000400007309C008316BD30850001308600831682
:100050001B1483169F131F139F121F1283129F17C7
:100060001F179F121F129F118316031301170B16E0
:100070008B1783121F1447201F151F193D28831249
:100080001E08B500B400CC20F22047203B28080011
:10009000AB00030E8301A9000A08AA008A01A4018B
:1000A000A5010530A6009A20B920861C58286A2888
:1000B000061D5B28772884208D20B9209F200311FE
:1000C000A60B5528A4202A088A00290E8300AB0E0F
:1000D0002B0E0900A40A031115302402031D7128F8
:1000E00096200530A6008420861C5D287428A50A69
:1000F000031115302502031D7E2898200530A60027
:100100008D20861C5D2881282408A700A70DA70D37
:10011000A70DA70D2708850008002508A800A80D31
:10012000A80DA80DA80D280886000800A401080045
:10013000A501080050308600E03085000800F0304E
:100140008600F030850008002508A800A80DA80D3D
:100150002808A507250DA407AC0008000330A2005D
:100160008930A100A00BB228A10BB228A20BB228A3
:1001700008000430AF00FA30AE00A630AD00AF0B7F
:10018000C228C828AE0BC528BF28C920C920C2284C
:100190000800AD0BC9280800B001B1010830B30058
:1001A0000310B40DB10DB30BD628E5280F3031057F
:1001B000B200053032020318E620F0303105B200FB
:1001C000503032020318EC20D02808000330B10769
:1001D000031C0800B00D08003030B107031C0800F4
:1001E000B00D0800831231088600311CF92805176C
:0601F000FA2805130800C7
:00000001FF
