:020000040000FA
:020000000528D1
:080008001A2868207D209E20CB
:10001000822085208B20982083121F14B0201F156A
:100020001F19102883161E088312B500B40039204A
:100030005F200E28AB00030E8301A9000A08AA0066
:100040008A012A088A00290E8300AB0E2B0E0900B4
:10005000A4010800A50108002508A800A80DA80D06
:100060002808A507250DA407AC000800AD0B36280D
:100070000800B001B1010830B3000310B40DB10D98
:10008000B30B432852280F303105B200053032023D
:1000900003185320F0303105B200503032020318FB
:1000A00059203D2808000330B107031C0800B00D9B
:1000B00008003030B107031C0800B00D080083129F
:1000C00031088600311C66280517672805130800CB
:1000D00085018601A401A501A601A701A801A90126
:1000E000AA01AB01AC01AD01AE01AF01B001B1019C
:1000F000B201B301B401B5010800831603130F1751
:100100008F16080007309C0008008316BD3085005C
:1001100001308600080083161B1483169F171F13D7
:100120009F121F1283129F171F179F121F129F11DA
:100130008316031301170B168B170800831603137E
:100140008112811101158114011483120B11080011
:10015000031783123C3081000B1DAC280B110800E3
:0A0160000630B600B60BB228080006
:00000001FF
