:020000040000FA
:020000000528D1
:080008003128850186018316F1
:100010000F178F1607309C000F3085000F308600B9
:100020008316031301178B170B1683160F309B00D3
:1000300000309F008312C0309F001F1426201F1520
:100040001F1920281E08860026201E280330A20023
:100050008930A100A00B2A28A10B2A28A20B2A284C
:100060000800AB00030E8301A9000A08AA008A0158
:10007000A401A5010530A6008320AF20861C4128DD
:100080005328061D442860286D207620AF20942038
:100090000311A60B3E28A5202A088A00290E8300FA
:1000A000AB0E2B0E0900A40A031115302402031D08
:1000B0005A287F200530A6006D20861C46285D2822
:1000C000A50A031115302502031D6728812005307C
:1000D000A6007620861C46286A282408A700A70DBB
:1000E000A70DA70DA70D2708850008002508A80063
:1000F000A80DA80DA80DA80D280886000800A401C9
:100100000800A50108000530A800A80DA80DA80D3D
:10011000A80D280886000E30A700A70DA70DA70D73
:10012000A70D2708850008000F30A800A80DA80D0E
:10013000A80DA80D280886000F30A800A80DA80D4E
:10014000A80DA80D2808850008002508A800A80DFE
:10015000A80D2808A507250DA407AC00080003304A
:10016000A2008930A100A00BB328A10BB328A20BD9
:04017000B3280800A8
:00000001FF
