:020000040000FA
:020000000528D1
:080008001728B020C720D92001
:10001000CC20D320831203130930A4009520FA20AA
:10002000FF3086000517FA20A40B0E280A28093095
:10003000A400A50095209F20FF30BA00FF30BB0030
:10004000FF30BC000130BD00051E282843201C28BD
:10005000851F2C284D201C28BA0B2428BB0B2428D4
:10006000BC0B2428BD0B3428831203130330BA00C1
:1000700095209F20FA20FF3086000517FA20BA0B42
:1000800038288B100900A40B4928462895200930F0
:10009000A4009520051A4A280800A50B53285028CB
:1000A0009F200930A5009F20051A542808008312BC
:1000B00003132508A800A80DA80D2808A507250DDD
:1000C000A407AC00080083120313B001B10108308B
:1000D000B3000310B40DB10DB30B6F287E280F30A1
:1000E0003105B2000530320203187F20F0303105AF
:1000F000B20050303202031885206928080003300E
:10010000B107031C0800B00D08003030B107031C14
:100110000800B00D08008312031331088600311C5B
:100120009328051794280513080083120313240845
:100130008600241C9D2805179E280513080083129D
:1001400003132508B900B90DB90DB90DB90D39085A
:1001500006068600251CAE280517AF2805130800E3
:1001600085018601A401A501A601A701A801A90195
:10017000AA01AB01AC01AD01AE01AF01B001B1010B
:10018000B201B301B401B501B701B801080083168B
:1001900003130F178F16080083160313BF30850053
:1001A0000130860008008316031301130B168B170A
:1001B00008008316031381128111011581140114A3
:1001C0000B110800831203133C3081000B1DE6283D
:1001D0000B110800831203130630B600B60BEE288D
:1001E0000800FF30BE000130BF00BE0BF528BF0B7A
:1001F000F1280800E220E220E220E220E220E220D2
:0A020000E220E220E220E2200800E4
:00000001FF
