:020000040000FA
:020000000528D1
:080008000029182231223622E2
:100010003D2283120313C1016430B3006430C30076
:10002000851B102805123308C0004C24C00B15286E
:10003000C10A05164C240512C30B24286430C300E2
:0C0040002128B30B24282528102825288F
:10020000AB00030E8301A9000930A400A5004D2214
:100210005722FF30C500FF30C6000830C700051D5B
:1002200015290022051912290929851E1B290C22CE
:10023000851A18290929C50B0F29C60B0F29C70BC9
:100240000F29831203130630C5004D2257220024C4
:10025000FF30860005170024C50B2529290E8300D1
:08026000AB0E2B0E8B10090000
:1004000083120313A40B082A052A4D220930A400E5
:100410004D22051A092A080083120313A50B142A7A
:10042000112A57220930A5005722051A152A08005B
:100430008312031385018601A401A501A601A7016A
:10044000A801A901AA01AB01AC01AD01AE01AF0148
:10045000B001B101B201C401B401B501B701B801E5
:100460000800831603130F178F1608008316031353
:10047000AC30850001308600080083160313011399
:100480000B168B1708008312031331088600311CEA
:100490004B2A05174C2A051308008312031324085E
:1004A0008600241C552A0517562A051308008312B6
:1004B00003132508B900B90DB90DB90DB90D3908E7
:1004C00006068600251C662A0517672A05130800FC
:100800000B240B240B240B240B240B240B240B2470
:100810000B240B2408008316031381128111011588
:1008200081140114831203133C3081000B1D162C1C
:100830000B110800831203130630B600B60B1E2CF2
:10084000080083160313811281110115811401140C
:1008500083120313FB3081000B1D2C2C0B1108009D
:10086000831203132030B600B60B342C0800831219
:1008700003135230B600B60B3B2C0800831203134F
:10088000C730B600B60B422C080083120313A53004
:10089000B600B60B492C0800831203131A30B600B9
:0608A000B60B502C08000D
:00000001FF
