:020000040000FA
:020000000528D1
:080008001728AA20C120D32013
:10001000C620CD20831203130930A4008F20F420C2
:10002000FF3086000517F420A40B0E280A2809309B
:10003000A400A5008F209920FF30BA00FF30BB003C
:10004000FF30BC00051E26283D201C28851F2A28BD
:1000500047201C28BA0B2228BB0B2228BC0B3028B7
:100060000330BA00FF30860085000517F4208F208A
:100070009920BA0B30288B100900A40B4328402884
:100080008F200930A4008F20051A44280800A50BF2
:100090004D284A2899200930A5009920051A4E2894
:1000A0000800831203132508A800A80DA80D28082E
:1000B000A507250DA407AC00080083120313B001A7
:1000C000B1010830B3000310B40DB10DB30B6928B2
:1000D00078280F303105B20005303202031879203C
:1000E000F0303105B2005030320203187F2063280F
:1000F00008000330B107031C0800B00D08003030C1
:10010000B107031C0800B00D080083120313310867
:100110008600311C8D2805178E28051308008312D0
:10012000031324088600241C972805179828051314
:100130000800831203132508B900B90DB90DB90DD4
:10014000B90D390806068600251CA8280517A92818
:100150000513080085018601A401A501A601A701D8
:10016000A801A901AA01AB01AC01AD01AE01AF012B
:10017000B001B101B201B301B401B501B701B801D9
:100180000800831603130F178F1608008316031336
:10019000BF30850001308600080083160313011369
:1001A0000B168B170800831603138112811101159A
:1001B000811401140B110800831203133C308100D9
:1001C0000B1DE0280B110800831203130630B60044
:1001D000B60BE8280800FF30BE000130BF00BE0BA0
:1001E000EF28BF0BEB280800DC20DC20DC20DC2023
:0E01F000DC20DC20DC20DC20DC20DC20080011
:00000001FF
