:020000040000FA
:020000000528D1
:080008001128A820BF20E5200B
:10001000C420C920DF2083120313000002308600B1
:100020000B280930A400A5008D209720FF30BA00CE
:10003000FF30BB00FF30BC00051E20283B201628E7
:10004000851F242845201628BA0B1C28BB0B1C280A
:10005000BC0B2A280330BA00FF3086008500051744
:100060000721831203138D20972083120313BA0BE9
:100070002A288B100900A40B41283E288D20093026
:10008000A4008D20051A42280800A50B4B284828FB
:1000900097200930A5009720051A4C2808008312E4
:1000A00003132508A800A80DA80D2808A507250DED
:1000B000A407AC00080083120313B001B10108309B
:1000C000B3000310B40DB10DB30B672876280F30C1
:1000D0003105B2000530320203187720F0303105C7
:1000E000B2005030320203187D206128080003302E
:1000F000B107031C0800B00D08003030B107031C25
:100100000800B00D08008312031331088600311C6B
:100110008B2805178C280513080083120313240865
:100120008600241C952805179628051308008312BD
:1001300003132508B900B90DB90DB90DB90D39086A
:1001400006068600251CA6280517A7280513080003
:1001500085018601A401A501A601A701A801A901A5
:10016000AA01AB01AC01AD01AE01AF01B001B1011B
:10017000B201B301B401B501B701B801080083169B
:1001800003130F178F1608008316031305309C0006
:10019000080083160313BF30850001308600080075
:1001A000831603131B1483169F171F139F121F120E
:1001B000831203139F171F179F121F129F1183167D
:1001C000031301130B168B170800831603138112F8
:1001D000811101158114011483120B11080083127F
:1001E00003173C3081000B1DF3280B11080083120C
:1001F00003130630B600B60BFB280800FF30BE0024
:100200000130BF00BE0B0229BF0BFE280800EF2003
:10021000EF20EF20EF20EF20EF20EF20EF20EF2066
:04022000EF200800C3
:00000001FF
