:020000040000FA
:020000000528D1
:0800080011289620AD20D32041
:10001000B220B720CD2083120313000002308600E7
:100020000B28AB00030E8301A9000A08AA008A016D
:100030000930A400A5007B2085200508033982072C
:10004000242825282B2831281D28A40B29287B208B
:1000500018287B201D28A50B2928852018288520F5
:100060001D2832282A088A00290E8300AB0E2B0E89
:100070000900A4010800A501080083120313250844
:10008000A800A80DA80D2808A507250DA407AC00F9
:10009000080083120313B001B1010830B30003104C
:1000A000B40DB10DB30B552864280F303105B200E3
:1000B0000530320203186520F0303105B2005030AF
:1000C000320203186B204F2808000330B107031CCD
:1000D0000800B00D08003030B107031C0800B00D57
:1000E00008008312031331088600311C7928051794
:1000F0007A28051308008312031324088600241CA1
:100100008328051784280513080083120313250884
:10011000B900B90DB90DB90DB90D3908060686003B
:10012000251C9428051795280513080085018601CC
:10013000A401A501A601A701A801A901AA01AB017B
:10014000AC01AD01AE01AF01B001B101B201B3012B
:10015000B401B501B701B8010800831603130F17E6
:100160008F1608008316031305309C0008008316C1
:100170000313BF3085000130860008008316031387
:100180001B1483169F171F139F121F128312031332
:100190009F171F179F121F129F118316031301131E
:1001A0000B168B170800831603138112811101159A
:1001B0008114011483120B110800831203173C30C1
:1001C00081000B1DE1280B11080083120313063078
:0801D000B600B60BE928080097
:00000001FF
