:020000040000FA
:020000000528D1
:080008002A288B20A220B4205D
:10001000A720AE20831203137C30C000FF30AD0058
:100020004008AD020130AD072D08AF008312031365
:10003000051A18288517DE201828831203130930A3
:10004000A4007020D320FF3086000517D320A40B16
:1000500021281D280930A400A50070207A20FF3037
:10006000BA00FF30BB000930BC00851C3928522083
:100070002F28851E3D285C202F28BA0B3528BB0B66
:100080003528BC0B4328831203130330BA007020B9
:100090007A20D320FF3086000517D320BA0B4728DB
:1000A0008B100900A40B5828552870200930A40093
:1000B0007020051A59280800A50B62285F287A20AD
:1000C0000930A5007A20051A63280800831203135B
:1000D00031088600311C6E2805176F2805130800AB
:1000E0008312031324088600241C78280517792816
:1000F00005130800831203132508B900B90DB90DC3
:10010000B90DB90D390806068600251C8928051782
:100110008A280513080085018601A401A501A6010E
:10012000A701A801A901AA01AB01AC01AD01AE0173
:10013000AF01B001B101B201B301B401B501B70122
:10014000B8010800831603130F178F1608008316D3
:100150000313AE30850001308600080083160313B8
:1001600001130B168B1708008316031381128111DC
:100170000115811401140B11080083160313811259
:100180008111011581140114831203133C30810085
:100190000B1DC8280B110800831203130630B6008C
:1001A000B60BD0280800BD20BD20BD20BD20BD203D
:1001B000BD20BD20BD20BD20BD2008008316031337
:1001C000811281110115811001140B118312031387
:1001D000400881000B1DEA282E1CEF28F628C00AD3
:1001E000AD0BFD282F08AD002E14FD28C003AD0B6C
:0E01F000FD282F08AD002E10FD280B11080071
:00000001FF
