:020000040000FA
:020000000528D1
:080008001728AC20C320D5200D
:10001000C820CF20831203130930A4009120F620BA
:10002000FF3086000517F620A40B0E280A28093099
:10003000A400A50091209B20FF30BA00FF30BB0038
:100040000930BC00051E26283F201C28851F2A28B1
:1000500049201C28BA0B2228BB0B2228BC0B3028B5
:10006000831203130330BA0091209B20F620FF3047
:1000700086000517F620BA0B34288B100900A40B54
:100080004528422891200930A4009120051A4628CD
:100090000800A50B4F284C289B200930A5009B2069
:1000A000051A50280800831203132508A800A80D7C
:1000B000A80D2808A507250DA407AC000800831289
:1000C0000313B001B1010830B3000310B40DB10D3A
:1000D000B30B6B287A280F303105B200053032029D
:1000E00003187B20F0303105B20050303202031883
:1000F0008120652808000330B107031C0800B00DFB
:1001000008003030B107031C0800B00D080083124E
:10011000031331088600311C8F280517902805131A
:1001200008008312031324088600241C992805174D
:100130009A2805130800831203132508B900B90D86
:10014000B90DB90DB90D390806068600251CAA2877
:100150000517AB280513080085018601A401A50138
:10016000A601A701A801A901AA01AB01AC01AD013B
:10017000AE01AF01B001B101B201B301B401B501EB
:10018000B701B8010800831603130F178F16080074
:1001900083160313BF3085000130860008008316E4
:1001A000031301130B168B17080083160313811218
:1001B00081110115811401140B110800831203131E
:1001C0003C3081000B1DE2280B1108008312031341
:1001D0000630B600B60BEA280800FF30BE0001303A
:1001E000BF00BE0BF128BF0BED280800DE20DE208B
:1001F000DE20DE20DE20DE20DE20DE20DE20DE200F
:020200000800F4
:00000001FF
