:020000040000FA
:020000000528D1
:06000A008501860183164A
:100010000F178F1607309C000F3085000F308600B9
:100020008316031301178B170B1683160F309B00D3
:1000300000309F008312C0309F004D30B40022205A
:1000400048201D28B001B1010830B3000310B40DE1
:10005000B10DB30B2C283B280F303105B200053011
:10006000320203183C20F0303105B2005030320229
:1000700003184220262808000330B107031C08009B
:10008000B00D08003030B107031C0800B00D0800A7
:1000900031088600B10DB10DB10D310D850008009C
:00000001FF
