:020000040000FA
:020000000528D1
:080008003E28712003170F17B9
:100010008F160F12031707309C000317BF3085009F
:100020000130860003171B1403179F131F139F1221
:100030001F1283129F171F179F121F129F11031762
:10004000011703170B168B1783121F1432201F156D
:100050001F19282883121E08B500B4003F2068200D
:100060003220262883120330A2008930A100A00B81
:100070003728A10B3728A20B372808000900831264
:10008000B001B1010830B3000310B40DB10DB30BD2
:100090004A2859280F303105B200053032020318C2
:1000A0005A20F0303105B20050303202031861207E
:1000B0004428080083120330B107031C0800B00D68
:1000C000080083123030B107031C0800B00D08008F
:1000D000831231088600311C6F280517702805131C
:1000E0000800831285018601A001A101A201A301DC
:1000F000A401A501A601A701A801A901AA01AB01BC
:10010000AC01AD01AE01AF01B001B101B201B3016B
:06011000B401B501080076
:00000001FF
