:020000040000FA
:020000000528D1
:080008002828850186018316FA
:100010000F178F1607309C000F3085000F308600B9
:100020008316031301178B170B1683160F309B00D3
:1000300000309F008312C0309F001F1426201F1520
:100040001F1920281E08860026201E2803300800BD
:10005000AB00030E8301A9000A08AA008A01A401CB
:10006000A5010530A6007920A520861C382849283E
:10007000061D3B28562863206C20A5200311A60BE3
:1000800035289B202A088A00290E8300AB0E2B0EF0
:100090000900A40A031115302402031D50287520FD
:1000A0000530A6006320861C3D285328A50A0311AD
:1000B00015302502031D5D2877200530A6006C2031
:1000C000861C3D2860282408A700A70DA70DA70DB2
:1000D000A70D2708850008002508A800A80DA80D71
:1000E000A80DA80D280886000800A4010800A50195
:1000F00008000530A800A80DA80DA80DA80D280817
:1001000086000E30A700A70DA70DA70DA70D270885
:10011000850008000F30A800A80DA80DA80DA80D97
:10012000280886000F30A800A80DA80DA80DA80D5E
:100130002808850008002508A800A80DA80D280893
:10014000A507250DA407AC0008000330A2008930E4
:10015000A100A00BA928A10BA928A20BA92808007F
:00000001FF
