:020000040000FA
:020000000528D1
:08000800002938225122562282
:020010005D226F
:10020000AB00030E8301A900CA010513491309308D
:10021000A400A500632270223129FF30C500FF3001
:10022000C6000930C7003129051C19290B240022FA
:100230000D29851E1E290B241C220D29C50B1429EE
:10024000C60B1429C70B1429831203130630C500EB
:10025000632270220024FF30860005170024C50B9E
:1002600028297E22290E8300AB0E2B0E8B1009004D
:100400008312031303110030CB002408CB02031D19
:100410000A2A0D2AA40B152A112A0930A4006322E6
:10042000332A0030A4006322172A6322172A0024EB
:100430000518002A1B2A0800831203130311003039
:10044000B9002508B902031D262A292AA50B312A3D
:100450002D2A0930A5007022332A0030A500702211
:10046000332A7022332A0024851A1C2A372A0800CE
:100470008312031385018601A401A501A601A7012A
:10048000A801A901AA01AB01AC01AD01AE01AF0108
:10049000B001B101B201C401B401B501B701B801A5
:1004A0000800831603130F178F1608008316031313
:1004B000AF30850001308600080083160313011356
:1004C0000B168B17080083120313F0304A0524041F
:1004D0008600CA00241C6E2A05176F2A051308001F
:1004E000831203132508B900B90DB90DB90DB90D63
:1004F0000F304A053904CA00860008002508B900F3
:10050000B90DB90D3908A507250D2407CC00CD007C
:020510000800E1
:100800001124112411241124112411241124112440
:10081000112411240800112411241124112411245D
:10082000080083160313811281110115811401142C
:10083000831203133C3081000B1D1C2C0B1108008C
:10084000831203130630B600B60B242C080083165F
:1008500003138112811101158114011483120313F2
:10086000FB3081000B1D322C0B1108008316031383
:100870008112811101158114011483120313EF30C9
:1008800081000B1D412C0B11080083120313203033
:10089000B600B60B492C0800831203135230B60081
:1008A000B60B502C080083120313C730B600B60BEA
:1008B000572C080083120313A530B600B60B5E2C2C
:1008C0000800831203131A30B600B60B652C08001B
:00000001FF
