:020000040000FA
:020000000528D1
:080008000E288920A020C6206B
:10001000A520AA20C020000005300B28AB00030E4D
:100020008301A9000A08AA008A010930A400A500DA
:10003000050882071E281F2825282B281828A40B0E
:1000400023287520152875201828A50B23287F2024
:1000500015287F2018282C282A088A00290E8300BA
:10006000AB0E2B0E0900A4010800A50108008312A5
:1000700003132508A800A80DA80D2808A507250D1D
:10008000A407AC00080083120313B001B1010830CB
:10009000B3000310B40DB10DB30B4F285E280F3021
:1000A0003105B2000530320203185F20F03031050F
:1000B000B20050303202031865204928080003308E
:1000C000B107031C0800B00D08003030B107031C55
:1000D0000800B00D08008312031331088600311C9C
:1000E00073280517742805130800831203132408C6
:1000F0008600241C7D2805177E280513080083121E
:10010000031325088600251C872805178828051352
:10011000080085018601A401A501A601A701A80187
:10012000A901AA01AB01AC01AD01AE01AF01B00163
:10013000B101B201B301B401B501B701B8010800C2
:10014000831603130F178F16080083160313053049
:100150009C00080083160313BF3085000130860021
:100160000800831603131B1483169F171F139F1277
:100170001F12831203139F171F179F121F129F1125
:100180008316031301170B168B170800831603132E
:100190008112811101158114011483120B110800C1
:1001A000831203173C3081000B1DD4280B1108006B
:0E01B000831203130630B600B60BDC280800DD
:00000001FF
