:020000040000FA
:020000000528D1
:080008001D2885018601831605
:100010000F178F1607309C000F3085000F308600B9
:100020008316031301178B170B1683160F309B00D3
:1000300000309F008312C0309F00AB00030E83018D
:10004000A9000A08AA008A01A401A5010530A6009A
:100050006E209A20861C2D283E28061D30284B280D
:10006000582061209A200311A60B2A2890202A08E4
:100070008A00290E8300AB0E2B0E0528A40A03115B
:1000800015302402031D45286A200530A60058209B
:10009000861C32284828A50A031115302502031DA5
:1000A00052286C200530A6006120861C3228552875
:1000B0002408A700A70DA70DA70DA70D27088500E9
:1000C00008002508A800A80DA80DA80DA80D28084F
:1000D00086000800A4010800A50108000530A8005A
:1000E000A80DA80DA80DA80D280886000E30A700A1
:1000F000A70DA70DA70DA70D2708850008000F3035
:10010000A800A80DA80DA80DA80D280886000F307E
:10011000A800A80DA80DA80DA80D280885000800A6
:100120002508A800A80DA80D2808A507250DA407D7
:10013000AC00080003300800033008000430AF00B2
:10014000FA30AE00A630AD00AF0BA728AD28AE0B3D
:10015000AA28A428AE20AE20A7280800AD0BAE2800
:02016000080095
:00000001FF
